{
  "contractName": "BoxOffice",
  "abi": [
    {
      "constant": true,
      "inputs": [
        {
          "name": "",
          "type": "uint256"
        }
      ],
      "name": "shows",
      "outputs": [
        {
          "name": "artistName",
          "type": "string"
        },
        {
          "name": "ticketPrice",
          "type": "uint256"
        }
      ],
      "payable": false,
      "stateMutability": "view",
      "type": "function"
    },
    {
      "constant": false,
      "inputs": [
        {
          "name": "_artistName",
          "type": "string"
        },
        {
          "name": "_ticketPrice",
          "type": "uint256"
        }
      ],
      "name": "addShow",
      "outputs": [],
      "payable": false,
      "stateMutability": "nonpayable",
      "type": "function"
    },
    {
      "constant": false,
      "inputs": [
        {
          "name": "_artistName",
          "type": "string"
        }
      ],
      "name": "buyTicket",
      "outputs": [],
      "payable": true,
      "stateMutability": "payable",
      "type": "function"
    },
    {
      "constant": true,
      "inputs": [
        {
          "name": "_userAddress",
          "type": "address"
        },
        {
          "name": "_artistName",
          "type": "string"
        }
      ],
      "name": "confirmPurchase",
      "outputs": [
        {
          "name": "",
          "type": "bool"
        }
      ],
      "payable": false,
      "stateMutability": "view",
      "type": "function"
    }
  ],
  "bytecode": "0x608060405234801561001057600080fd5b506107d4806100206000396000f300608060405260043610610062576000357c0100000000000000000000000000000000000000000000000000000000900463ffffffff1680631dcc1e1014610067578063224220fe146100da57806330f0931e1461017b578063fa30b25114610228575b600080fd5b34801561007357600080fd5b506100d8600480360381019080803590602001908201803590602001908080601f016020809104026020016040519081016040528093929190818152602001838380828437820191505050505050919291929080359060200190929190505050610284565b005b3480156100e657600080fd5b50610161600480360381019080803573ffffffffffffffffffffffffffffffffffffffff169060200190929190803590602001908201803590602001908080601f0160208091040260200160405190810160405280939291908181526020018383808284378201915050505050509192919290505050610377565b604051808215151515815260200191505060405180910390f35b34801561018757600080fd5b506101a660048036038101908080359060200190929190505050610414565b6040518080602001838152602001828103825284818151815260200191508051906020019080838360005b838110156101ec5780820151818401526020810190506101d1565b50505050905090810190601f1680156102195780820380516001836020036101000a031916815260200191505b50935050505060405180910390f35b610282600480360381019080803590602001908201803590602001908080601f01602080910402602001604051908101604052809392919081815260200183838082843782019150505050505091929192905050506104df565b005b600061028f8361060b565b90506001600060606040519081016040528086815260200185815260200160006040519080825280602002602001820160405280156102dd5781602001602082028038833980820191505090505b50815250908060018154018082558091505090600182039060005260206000209060040201600090919290919091506000820151816000019080519060200190610328929190610636565b5060208201518160010155604082015181600201908051906020019061034f9291906106b6565b5050500360016000836000191660001916815260200190815260200160002081905550505050565b6000806103838361060b565b90506000600160008360001916600019168152602001908152602001600020548154811015156103af57fe5b906000526020600020906004020160030160008573ffffffffffffffffffffffffffffffffffffffff1673ffffffffffffffffffffffffffffffffffffffff16815260200190815260200160002060009054906101000a900460ff1691505092915050565b60008181548110151561042357fe5b9060005260206000209060040201600091509050806000018054600181600116156101000203166002900480601f0160208091040260200160405190810160405280929190818152602001828054600181600116156101000203166002900480156104cf5780601f106104a4576101008083540402835291602001916104cf565b820191906000526020600020905b8154815290600101906020018083116104b257829003601f168201915b5050505050908060010154905082565b6000806104eb8361060b565b915060006001600084600019166000191681526020019081526020016000205481548110151561051757fe5b90600052602060002090600402019050670de0b6b3a7640000816001015402341015151561054457600080fd5b806002013390806001815401808255809150509060018203906000526020600020016000909192909190916101000a81548173ffffffffffffffffffffffffffffffffffffffff021916908373ffffffffffffffffffffffffffffffffffffffff1602179055505060018160030160003373ffffffffffffffffffffffffffffffffffffffff1673ffffffffffffffffffffffffffffffffffffffff16815260200190815260200160002060006101000a81548160ff021916908315150217905550505050565b600060608290506000815114156106285760006001029150610630565b602083015191505b50919050565b828054600181600116156101000203166002900490600052602060002090601f016020900481019282601f1061067757805160ff19168380011785556106a5565b828001600101855582156106a5579182015b828111156106a4578251825591602001919060010190610689565b5b5090506106b29190610740565b5090565b82805482825590600052602060002090810192821561072f579160200282015b8281111561072e5782518260006101000a81548173ffffffffffffffffffffffffffffffffffffffff021916908373ffffffffffffffffffffffffffffffffffffffff160217905550916020019190600101906106d6565b5b50905061073c9190610765565b5090565b61076291905b8082111561075e576000816000905550600101610746565b5090565b90565b6107a591905b808211156107a157600081816101000a81549073ffffffffffffffffffffffffffffffffffffffff02191690555060010161076b565b5090565b905600a165627a7a7230582074d82ce4bc2f2db6259c44d41551724945c93e603cad8cb82ef1e2ce96b8adf80029",
  "source": "pragma solidity ^0.4.24;\n\ncontract BoxOffice {\n\n    struct Show {\n        string artistName;\n        uint ticketPrice;\n        address[] attendees;\n        mapping (address => bool) didUserBuy;\n    }\n\n    Show[] public shows;\n\n    mapping (bytes32 => uint) private nameToId;\n\n    modifier costs(uint _ticketPrice) {\n        if (msg.value >= _ticketPrice * 1 ether) {\n            _;\n        }\n    }\n\n    function addShow(string _artistName, uint _ticketPrice) public {\n        bytes32 _name = stringToBytes32(_artistName);\n        nameToId[_name] = shows.push(Show(_artistName, _ticketPrice, new address[](0))) - 1;\n    }\n\n    function buyTicket(string _artistName) public payable {\n        bytes32 _name = stringToBytes32(_artistName);\n        Show storage show = shows[nameToId[_name]];\n        require(msg.value >= show.ticketPrice * 1 ether);\n        show.attendees.push(msg.sender);\n        show.didUserBuy[msg.sender] = true;\n    }\n\n    function confirmPurchase(address _userAddress, string _artistName) public view returns (bool) {\n        bytes32 _name = stringToBytes32(_artistName);\n        return shows[nameToId[_name]].didUserBuy[_userAddress];\n    }\n\n    function stringToBytes32(string memory _source) private pure returns (bytes32 result) {\n        bytes memory tempEmptyStringTest = bytes(_source);\n        if (tempEmptyStringTest.length == 0) {\n            return 0x0;\n        }\n\n        assembly {\n            result := mload(add(_source, 32))\n        }\n    }\n}\n",
  "sourcePath": "/Users/JonathanViray/dapps/box-office/contracts/BoxOffice.sol",
  "compiler": {
    "name": "solc",
    "version": "0.4.24+commit.e67f0147.Emscripten.clang"
  },
  "schemaVersion": "2.0.1",
  "updatedAt": "2018-10-15T06:56:19.919Z"
}