{
  "contractName": "BoxOffice",
  "abi": [
    {
      "constant": true,
      "inputs": [
        {
          "name": "",
          "type": "uint256"
        }
      ],
      "name": "shows",
      "outputs": [
        {
          "name": "artistName",
          "type": "string"
        },
        {
          "name": "ticketPrice",
          "type": "uint256"
        }
      ],
      "payable": false,
      "stateMutability": "view",
      "type": "function"
    },
    {
      "constant": false,
      "inputs": [
        {
          "name": "_artistName",
          "type": "string"
        },
        {
          "name": "_ticketPrice",
          "type": "uint256"
        }
      ],
      "name": "addShow",
      "outputs": [],
      "payable": false,
      "stateMutability": "nonpayable",
      "type": "function"
    },
    {
      "constant": false,
      "inputs": [
        {
          "name": "_artistName",
          "type": "string"
        }
      ],
      "name": "buyTicket",
      "outputs": [],
      "payable": true,
      "stateMutability": "payable",
      "type": "function"
    },
    {
      "constant": true,
      "inputs": [
        {
          "name": "_userAddress",
          "type": "address"
        },
        {
          "name": "_artistName",
          "type": "string"
        }
      ],
      "name": "confirmPurchase",
      "outputs": [
        {
          "name": "",
          "type": "bool"
        }
      ],
      "payable": false,
      "stateMutability": "view",
      "type": "function"
    },
    {
      "constant": true,
      "inputs": [],
      "name": "getShowCount",
      "outputs": [
        {
          "name": "",
          "type": "uint256"
        }
      ],
      "payable": false,
      "stateMutability": "view",
      "type": "function"
    },
    {
      "constant": true,
      "inputs": [
        {
          "name": "_index",
          "type": "uint256"
        }
      ],
      "name": "getUpcomingArtistAtIndex",
      "outputs": [
        {
          "name": "",
          "type": "string"
        }
      ],
      "payable": false,
      "stateMutability": "view",
      "type": "function"
    }
  ],
  "bytecode": "0x608060405234801561001057600080fd5b50610989806100206000396000f300608060405260043610610078576000357c0100000000000000000000000000000000000000000000000000000000900463ffffffff1680631c8679b11461007d5780631dcc1e1014610123578063224220fe146101965780632f17ad451461023757806330f0931e14610262578063fa30b2511461030f575b600080fd5b34801561008957600080fd5b506100a86004803603810190808035906020019092919050505061036b565b6040518080602001828103825283818151815260200191508051906020019080838360005b838110156100e85780820151818401526020810190506100cd565b50505050905090810190601f1680156101155780820380516001836020036101000a031916815260200191505b509250505060405180910390f35b34801561012f57600080fd5b50610194600480360381019080803590602001908201803590602001908080601f01602080910402602001604051908101604052809392919081815260200183838082843782019150505050505091929192908035906020019092919050505061042d565b005b3480156101a257600080fd5b5061021d600480360381019080803573ffffffffffffffffffffffffffffffffffffffff169060200190929190803590602001908201803590602001908080601f0160208091040260200160405190810160405280939291908181526020018383808284378201915050505050509192919290505050610520565b604051808215151515815260200191505060405180910390f35b34801561024357600080fd5b5061024c6105bd565b6040518082815260200191505060405180910390f35b34801561026e57600080fd5b5061028d600480360381019080803590602001909291905050506105c9565b6040518080602001838152602001828103825284818151815260200191508051906020019080838360005b838110156102d35780820151818401526020810190506102b8565b50505050905090810190601f1680156103005780820380516001836020036101000a031916815260200191505b50935050505060405180910390f35b610369600480360381019080803590602001908201803590602001908080601f0160208091040260200160405190810160405280939291908181526020018383808284378201915050505050509192919290505050610694565b005b606060008281548110151561037c57fe5b90600052602060002090600402016000018054600181600116156101000203166002900480601f0160208091040260200160405190810160405280929190818152602001828054600181600116156101000203166002900480156104215780601f106103f657610100808354040283529160200191610421565b820191906000526020600020905b81548152906001019060200180831161040457829003601f168201915b50505050509050919050565b6000610438836107c0565b90506001600060606040519081016040528086815260200185815260200160006040519080825280602002602001820160405280156104865781602001602082028038833980820191505090505b508152509080600181540180825580915050906001820390600052602060002090600402016000909192909190915060008201518160000190805190602001906104d19291906107eb565b506020820151816001015560408201518160020190805190602001906104f892919061086b565b5050500360016000836000191660001916815260200190815260200160002081905550505050565b60008061052c836107c0565b905060006001600083600019166000191681526020019081526020016000205481548110151561055857fe5b906000526020600020906004020160030160008573ffffffffffffffffffffffffffffffffffffffff1673ffffffffffffffffffffffffffffffffffffffff16815260200190815260200160002060009054906101000a900460ff1691505092915050565b60008080549050905090565b6000818154811015156105d857fe5b9060005260206000209060040201600091509050806000018054600181600116156101000203166002900480601f0160208091040260200160405190810160405280929190818152602001828054600181600116156101000203166002900480156106845780601f1061065957610100808354040283529160200191610684565b820191906000526020600020905b81548152906001019060200180831161066757829003601f168201915b5050505050908060010154905082565b6000806106a0836107c0565b91506000600160008460001916600019168152602001908152602001600020548154811015156106cc57fe5b90600052602060002090600402019050670de0b6b3a764000081600101540234101515156106f957600080fd5b806002013390806001815401808255809150509060018203906000526020600020016000909192909190916101000a81548173ffffffffffffffffffffffffffffffffffffffff021916908373ffffffffffffffffffffffffffffffffffffffff1602179055505060018160030160003373ffffffffffffffffffffffffffffffffffffffff1673ffffffffffffffffffffffffffffffffffffffff16815260200190815260200160002060006101000a81548160ff021916908315150217905550505050565b600060608290506000815114156107dd57600060010291506107e5565b602083015191505b50919050565b828054600181600116156101000203166002900490600052602060002090601f016020900481019282601f1061082c57805160ff191683800117855561085a565b8280016001018555821561085a579182015b8281111561085957825182559160200191906001019061083e565b5b50905061086791906108f5565b5090565b8280548282559060005260206000209081019282156108e4579160200282015b828111156108e35782518260006101000a81548173ffffffffffffffffffffffffffffffffffffffff021916908373ffffffffffffffffffffffffffffffffffffffff1602179055509160200191906001019061088b565b5b5090506108f1919061091a565b5090565b61091791905b808211156109135760008160009055506001016108fb565b5090565b90565b61095a91905b8082111561095657600081816101000a81549073ffffffffffffffffffffffffffffffffffffffff021916905550600101610920565b5090565b905600a165627a7a723058207a0d5341991be0a986ba1e8c9fd83fec3b41f10d7dc752f8a4f39f7fb1f93f8d0029",
  "source": "pragma solidity ^0.4.24;\n\ncontract BoxOffice {\n\n    struct Show {\n        string artistName;\n        uint ticketPrice;\n        address[] attendees;\n        mapping (address => bool) didUserBuy;\n    }\n\n    Show[] public shows;\n\n    mapping (bytes32 => uint) private nameToId;\n\n    modifier costs(uint _ticketPrice) {\n        if (msg.value >= _ticketPrice * 1 ether) {\n            _;\n        }\n    }\n\n    function addShow(string _artistName, uint _ticketPrice) public {\n        bytes32 _name = stringToBytes32(_artistName);\n        nameToId[_name] = shows.push(Show(_artistName, _ticketPrice, new address[](0))) - 1;\n    }\n\n    function buyTicket(string _artistName) public payable {\n        bytes32 _name = stringToBytes32(_artistName);\n        Show storage show = shows[nameToId[_name]];\n        require(msg.value >= show.ticketPrice * 1 ether);\n        show.attendees.push(msg.sender);\n        show.didUserBuy[msg.sender] = true;\n    }\n\n    function confirmPurchase(address _userAddress, string _artistName) public view returns (bool) {\n        bytes32 _name = stringToBytes32(_artistName);\n        return shows[nameToId[_name]].didUserBuy[_userAddress];\n    }\n\n    function getShowCount() public view returns (uint) {\n        return shows.length;\n    }\n\n    function getUpcomingArtistAtIndex(uint _index) public view returns (string) {\n        return shows[_index].artistName;\n    }\n\n    function stringToBytes32(string memory _source) private pure returns (bytes32 result) {\n        bytes memory tempEmptyStringTest = bytes(_source);\n        if (tempEmptyStringTest.length == 0) {\n            return 0x0;\n        }\n\n        assembly {\n            result := mload(add(_source, 32))\n        }\n    }\n}\n",
  "sourcePath": "/Users/JonathanViray/dapps/box-office/contracts/BoxOffice.sol",
  "compiler": {
    "name": "solc",
    "version": "0.4.24+commit.e67f0147.Emscripten.clang"
  },
  "schemaVersion": "2.0.1",
  "updatedAt": "2018-10-16T05:27:34.880Z"
}